{
  "contractName": "FiatBackedV0",
  "abi": [
    {
      "anonymous": false,
      "inputs": [
        {
          "indexed": true,
          "internalType": "address",
          "name": "owner",
          "type": "address"
        },
        {
          "indexed": true,
          "internalType": "address",
          "name": "spender",
          "type": "address"
        },
        {
          "indexed": false,
          "internalType": "uint256",
          "name": "value",
          "type": "uint256"
        }
      ],
      "name": "Approval",
      "type": "event"
    },
    {
      "anonymous": false,
      "inputs": [
        {
          "indexed": true,
          "internalType": "address",
          "name": "_account",
          "type": "address"
        }
      ],
      "name": "Blacklisted",
      "type": "event"
    },
    {
      "anonymous": false,
      "inputs": [
        {
          "indexed": true,
          "internalType": "address",
          "name": "newBlacklister",
          "type": "address"
        }
      ],
      "name": "BlacklisterChanged",
      "type": "event"
    },
    {
      "anonymous": false,
      "inputs": [
        {
          "indexed": true,
          "internalType": "address",
          "name": "burner",
          "type": "address"
        },
        {
          "indexed": false,
          "internalType": "uint256",
          "name": "amount",
          "type": "uint256"
        }
      ],
      "name": "Burn",
      "type": "event"
    },
    {
      "anonymous": false,
      "inputs": [
        {
          "indexed": true,
          "internalType": "address",
          "name": "newMasterMinter",
          "type": "address"
        }
      ],
      "name": "MasterMinterChanged",
      "type": "event"
    },
    {
      "anonymous": false,
      "inputs": [
        {
          "indexed": true,
          "internalType": "address",
          "name": "minter",
          "type": "address"
        },
        {
          "indexed": true,
          "internalType": "address",
          "name": "to",
          "type": "address"
        },
        {
          "indexed": false,
          "internalType": "uint256",
          "name": "amount",
          "type": "uint256"
        }
      ],
      "name": "Mint",
      "type": "event"
    },
    {
      "anonymous": false,
      "inputs": [
        {
          "indexed": true,
          "internalType": "address",
          "name": "minter",
          "type": "address"
        },
        {
          "indexed": false,
          "internalType": "uint256",
          "name": "minterAllowedAmount",
          "type": "uint256"
        }
      ],
      "name": "MinterConfigured",
      "type": "event"
    },
    {
      "anonymous": false,
      "inputs": [
        {
          "indexed": true,
          "internalType": "address",
          "name": "oldMinter",
          "type": "address"
        }
      ],
      "name": "MinterRemoved",
      "type": "event"
    },
    {
      "anonymous": false,
      "inputs": [
        {
          "indexed": false,
          "internalType": "address",
          "name": "previousOwner",
          "type": "address"
        },
        {
          "indexed": false,
          "internalType": "address",
          "name": "newOwner",
          "type": "address"
        }
      ],
      "name": "OwnershipTransferred",
      "type": "event"
    },
    {
      "anonymous": false,
      "inputs": [
        {
          "indexed": true,
          "internalType": "address",
          "name": "from",
          "type": "address"
        },
        {
          "indexed": true,
          "internalType": "address",
          "name": "to",
          "type": "address"
        },
        {
          "indexed": false,
          "internalType": "uint256",
          "name": "value",
          "type": "uint256"
        }
      ],
      "name": "Transfer",
      "type": "event"
    },
    {
      "anonymous": false,
      "inputs": [
        {
          "indexed": true,
          "internalType": "address",
          "name": "_account",
          "type": "address"
        }
      ],
      "name": "UnBlacklisted",
      "type": "event"
    },
    {
      "inputs": [
        {
          "internalType": "address",
          "name": "_account",
          "type": "address"
        }
      ],
      "name": "blacklist",
      "outputs": [],
      "stateMutability": "nonpayable",
      "type": "function"
    },
    {
      "inputs": [],
      "name": "blacklister",
      "outputs": [
        {
          "internalType": "address",
          "name": "",
          "type": "address"
        }
      ],
      "stateMutability": "view",
      "type": "function",
      "constant": true
    },
    {
      "inputs": [],
      "name": "currency",
      "outputs": [
        {
          "internalType": "string",
          "name": "",
          "type": "string"
        }
      ],
      "stateMutability": "view",
      "type": "function",
      "constant": true
    },
    {
      "inputs": [],
      "name": "decimals",
      "outputs": [
        {
          "internalType": "uint8",
          "name": "",
          "type": "uint8"
        }
      ],
      "stateMutability": "view",
      "type": "function",
      "constant": true
    },
    {
      "inputs": [
        {
          "internalType": "address",
          "name": "_account",
          "type": "address"
        }
      ],
      "name": "isBlacklisted",
      "outputs": [
        {
          "internalType": "bool",
          "name": "",
          "type": "bool"
        }
      ],
      "stateMutability": "view",
      "type": "function",
      "constant": true
    },
    {
      "inputs": [],
      "name": "masterMinter",
      "outputs": [
        {
          "internalType": "address",
          "name": "",
          "type": "address"
        }
      ],
      "stateMutability": "view",
      "type": "function",
      "constant": true
    },
    {
      "inputs": [],
      "name": "name",
      "outputs": [
        {
          "internalType": "string",
          "name": "",
          "type": "string"
        }
      ],
      "stateMutability": "view",
      "type": "function",
      "constant": true
    },
    {
      "inputs": [],
      "name": "owner",
      "outputs": [
        {
          "internalType": "address",
          "name": "",
          "type": "address"
        }
      ],
      "stateMutability": "view",
      "type": "function",
      "constant": true
    },
    {
      "inputs": [],
      "name": "symbol",
      "outputs": [
        {
          "internalType": "string",
          "name": "",
          "type": "string"
        }
      ],
      "stateMutability": "view",
      "type": "function",
      "constant": true
    },
    {
      "inputs": [
        {
          "internalType": "address",
          "name": "newOwner",
          "type": "address"
        }
      ],
      "name": "transferOwnership",
      "outputs": [],
      "stateMutability": "nonpayable",
      "type": "function"
    },
    {
      "inputs": [
        {
          "internalType": "address",
          "name": "_account",
          "type": "address"
        }
      ],
      "name": "unBlacklist",
      "outputs": [],
      "stateMutability": "nonpayable",
      "type": "function"
    },
    {
      "inputs": [
        {
          "internalType": "address",
          "name": "_newBlacklister",
          "type": "address"
        }
      ],
      "name": "updateBlacklister",
      "outputs": [],
      "stateMutability": "nonpayable",
      "type": "function"
    },
    {
      "inputs": [
        {
          "internalType": "string",
          "name": "tokenName",
          "type": "string"
        },
        {
          "internalType": "string",
          "name": "tokenSymbol",
          "type": "string"
        },
        {
          "internalType": "string",
          "name": "tokenCurrency",
          "type": "string"
        },
        {
          "internalType": "uint8",
          "name": "tokenDecimals",
          "type": "uint8"
        },
        {
          "internalType": "address",
          "name": "newMasterMinter",
          "type": "address"
        },
        {
          "internalType": "address",
          "name": "newBlacklister",
          "type": "address"
        },
        {
          "internalType": "address",
          "name": "newOwner",
          "type": "address"
        }
      ],
      "name": "initialize",
      "outputs": [],
      "stateMutability": "nonpayable",
      "type": "function"
    },
    {
      "inputs": [
        {
          "internalType": "address",
          "name": "_to",
          "type": "address"
        },
        {
          "internalType": "uint256",
          "name": "_amount",
          "type": "uint256"
        }
      ],
      "name": "mint",
      "outputs": [
        {
          "internalType": "bool",
          "name": "",
          "type": "bool"
        }
      ],
      "stateMutability": "nonpayable",
      "type": "function"
    },
    {
      "inputs": [
        {
          "internalType": "address",
          "name": "minter",
          "type": "address"
        }
      ],
      "name": "minterAllowance",
      "outputs": [
        {
          "internalType": "uint256",
          "name": "",
          "type": "uint256"
        }
      ],
      "stateMutability": "view",
      "type": "function",
      "constant": true
    },
    {
      "inputs": [
        {
          "internalType": "address",
          "name": "account",
          "type": "address"
        }
      ],
      "name": "isMinter",
      "outputs": [
        {
          "internalType": "bool",
          "name": "",
          "type": "bool"
        }
      ],
      "stateMutability": "view",
      "type": "function",
      "constant": true
    },
    {
      "inputs": [
        {
          "internalType": "address",
          "name": "owner",
          "type": "address"
        },
        {
          "internalType": "address",
          "name": "spender",
          "type": "address"
        }
      ],
      "name": "allowance",
      "outputs": [
        {
          "internalType": "uint256",
          "name": "",
          "type": "uint256"
        }
      ],
      "stateMutability": "view",
      "type": "function",
      "constant": true
    },
    {
      "inputs": [],
      "name": "totalSupply",
      "outputs": [
        {
          "internalType": "uint256",
          "name": "",
          "type": "uint256"
        }
      ],
      "stateMutability": "view",
      "type": "function",
      "constant": true
    },
    {
      "inputs": [
        {
          "internalType": "address",
          "name": "account",
          "type": "address"
        }
      ],
      "name": "balanceOf",
      "outputs": [
        {
          "internalType": "uint256",
          "name": "",
          "type": "uint256"
        }
      ],
      "stateMutability": "view",
      "type": "function",
      "constant": true
    },
    {
      "inputs": [
        {
          "internalType": "address",
          "name": "spender",
          "type": "address"
        },
        {
          "internalType": "uint256",
          "name": "value",
          "type": "uint256"
        }
      ],
      "name": "approve",
      "outputs": [
        {
          "internalType": "bool",
          "name": "",
          "type": "bool"
        }
      ],
      "stateMutability": "nonpayable",
      "type": "function"
    },
    {
      "inputs": [
        {
          "internalType": "address",
          "name": "from",
          "type": "address"
        },
        {
          "internalType": "address",
          "name": "to",
          "type": "address"
        },
        {
          "internalType": "uint256",
          "name": "value",
          "type": "uint256"
        }
      ],
      "name": "transferFrom",
      "outputs": [
        {
          "internalType": "bool",
          "name": "",
          "type": "bool"
        }
      ],
      "stateMutability": "nonpayable",
      "type": "function"
    },
    {
      "inputs": [
        {
          "internalType": "address",
          "name": "to",
          "type": "address"
        },
        {
          "internalType": "uint256",
          "name": "value",
          "type": "uint256"
        }
      ],
      "name": "transfer",
      "outputs": [
        {
          "internalType": "bool",
          "name": "",
          "type": "bool"
        }
      ],
      "stateMutability": "nonpayable",
      "type": "function"
    },
    {
      "inputs": [
        {
          "internalType": "address",
          "name": "minter",
          "type": "address"
        },
        {
          "internalType": "uint256",
          "name": "minterAllowedAmount",
          "type": "uint256"
        }
      ],
      "name": "configureMinter",
      "outputs": [
        {
          "internalType": "bool",
          "name": "",
          "type": "bool"
        }
      ],
      "stateMutability": "nonpayable",
      "type": "function"
    },
    {
      "inputs": [
        {
          "internalType": "address",
          "name": "minter",
          "type": "address"
        }
      ],
      "name": "removeMinter",
      "outputs": [
        {
          "internalType": "bool",
          "name": "",
          "type": "bool"
        }
      ],
      "stateMutability": "nonpayable",
      "type": "function"
    },
    {
      "inputs": [
        {
          "internalType": "uint256",
          "name": "_amount",
          "type": "uint256"
        }
      ],
      "name": "burn",
      "outputs": [],
      "stateMutability": "nonpayable",
      "type": "function"
    },
    {
      "inputs": [
        {
          "internalType": "address",
          "name": "_newMasterMinter",
          "type": "address"
        }
      ],
      "name": "updateMasterMinter",
      "outputs": [],
      "stateMutability": "nonpayable",
      "type": "function"
    }
  ],
  "bytecode": "0x608060405234801561001057600080fd5b50613bd6806100206000396000f3fe608060405234801561001057600080fd5b506004361061018e5760003560e01c80638da5cb5b116100de578063afa6e0db11610097578063e5a6b10f11610071578063e5a6b10f146104d1578063f2fde38b146104ef578063f9f92be41461050b578063fe575a87146105275761018e565b8063afa6e0db14610467578063bd10243014610483578063dd62ed3e146104a15761018e565b80638da5cb5b1461039357806395d89b41146103b1578063a9059cbb146103cf578063aa20e1e4146103ff578063aa271e1a1461041b578063ad38bf221461044b5761018e565b8063313ce5671161014b57806342966c681161012557806342966c68146102e75780634e44d9561461030357806370a08231146103335780638a6db9c3146103635761018e565b8063313ce5671461027b57806335d99f351461029957806340c10f19146102b75761018e565b806306fdde0314610193578063095ea7b3146101b157806318160ddd146101e15780631a895266146101ff57806323b872dd1461021b5780633092afd51461024b575b600080fd5b61019b610557565b6040516101a891906135d5565b60405180910390f35b6101cb60048036038101906101c69190612b18565b6105e5565b6040516101d891906135ba565b60405180910390f35b6101e961071a565b6040516101f691906138b7565b60405180910390f35b61021960048036038101906102149190612a64565b610724565b005b61023560048036038101906102309190612ac9565b610852565b60405161024291906135ba565b60405180910390f35b61026560048036038101906102609190612a64565b610be5565b60405161027291906135ba565b60405180910390f35b610283610d60565b60405161029091906138d2565b60405180910390f35b6102a1610d73565b6040516102ae9190613576565b60405180910390f35b6102d160048036038101906102cc9190612b18565b610d99565b6040516102de91906135ba565b60405180910390f35b61030160048036038101906102fc9190612c3a565b61125b565b005b61031d60048036038101906103189190612b18565b611569565b60405161032a91906135ba565b60405180910390f35b61034d60048036038101906103489190612a64565b6116ef565b60405161035a91906138b7565b60405180910390f35b61037d60048036038101906103789190612a64565b611738565b60405161038a91906138b7565b60405180910390f35b61039b611781565b6040516103a89190613576565b60405180910390f35b6103b96117aa565b6040516103c691906135d5565b60405180910390f35b6103e960048036038101906103e49190612b18565b611838565b6040516103f691906135ba565b60405180910390f35b61041960048036038101906104149190612a64565b61196d565b005b61043560048036038101906104309190612a64565b611b14565b60405161044291906135ba565b60405180910390f35b61046560048036038101906104609190612a64565b611b6a565b005b610481600480360381019061047c9190612b54565b611d11565b005b61048b611fc8565b6040516104989190613576565b60405180910390f35b6104bb60048036038101906104b69190612a8d565b611fee565b6040516104c891906138b7565b60405180910390f35b6104d9612075565b6040516104e691906135d5565b60405180910390f35b61050960048036038101906105049190612a64565b612103565b005b61052560048036038101906105209190612a64565b612266565b005b610541600480360381019061053c9190612a64565b612394565b60405161054e91906135ba565b60405180910390f35b6003805461056490613a8b565b80601f016020809104026020016040519081016040528092919081815260200182805461059090613a8b565b80156105dd5780601f106105b2576101008083540402835291602001916105dd565b820191906000526020600020905b8154815290600101906020018083116105c057829003601f168201915b505050505081565b600033600260008273ffffffffffffffffffffffffffffffffffffffff1673ffffffffffffffffffffffffffffffffffffffff16815260200190815260200160002060009054906101000a900460ff1615610675576040517f08c379a000000000000000000000000000000000000000000000000000000000815260040161066c90613897565b60405180910390fd5b83600260008273ffffffffffffffffffffffffffffffffffffffff1673ffffffffffffffffffffffffffffffffffffffff16815260200190815260200160002060009054906101000a900460ff1615610703576040517f08c379a00000000000000000000000000000000000000000000000000000000081526004016106fa90613897565b60405180910390fd5b61070e3386866123ea565b60019250505092915050565b6000600a54905090565b600160009054906101000a900473ffffffffffffffffffffffffffffffffffffffff1673ffffffffffffffffffffffffffffffffffffffff163373ffffffffffffffffffffffffffffffffffffffff16146107b4576040517f08c379a00000000000000000000000000000000000000000000000000000000081526004016107ab906136f7565b60405180910390fd5b6000600260008373ffffffffffffffffffffffffffffffffffffffff1673ffffffffffffffffffffffffffffffffffffffff16815260200190815260200160002060006101000a81548160ff0219169083151502179055508073ffffffffffffffffffffffffffffffffffffffff167f117e3210bb9aa7d9baff172026820255c6f6c30ba8999d1c2fd88e2848137c4e60405160405180910390a250565b600033600260008273ffffffffffffffffffffffffffffffffffffffff1673ffffffffffffffffffffffffffffffffffffffff16815260200190815260200160002060009054906101000a900460ff16156108e2576040517f08c379a00000000000000000000000000000000000000000000000000000000081526004016108d990613897565b60405180910390fd5b84600260008273ffffffffffffffffffffffffffffffffffffffff1673ffffffffffffffffffffffffffffffffffffffff16815260200190815260200160002060009054906101000a900460ff1615610970576040517f08c379a000000000000000000000000000000000000000000000000000000000815260040161096790613897565b60405180910390fd5b84600260008273ffffffffffffffffffffffffffffffffffffffff1673ffffffffffffffffffffffffffffffffffffffff16815260200190815260200160002060009054906101000a900460ff16156109fe576040517f08c379a00000000000000000000000000000000000000000000000000000000081526004016109f590613897565b60405180910390fd5b600960008873ffffffffffffffffffffffffffffffffffffffff1673ffffffffffffffffffffffffffffffffffffffff16815260200190815260200160002060003373ffffffffffffffffffffffffffffffffffffffff1673ffffffffffffffffffffffffffffffffffffffff16815260200190815260200160002054851115610abd576040517f08c379a0000000000000000000000000000000000000000000000000000000008152600401610ab490613757565b60405180910390fd5b610ac88787876125b5565b610b5785600960008a73ffffffffffffffffffffffffffffffffffffffff1673ffffffffffffffffffffffffffffffffffffffff16815260200190815260200160002060003373ffffffffffffffffffffffffffffffffffffffff1673ffffffffffffffffffffffffffffffffffffffff168152602001908152602001600020546128ab90919063ffffffff16565b600960008973ffffffffffffffffffffffffffffffffffffffff1673ffffffffffffffffffffffffffffffffffffffff16815260200190815260200160002060003373ffffffffffffffffffffffffffffffffffffffff1673ffffffffffffffffffffffffffffffffffffffff16815260200190815260200160002081905550600193505050509392505050565b6000600760009054906101000a900473ffffffffffffffffffffffffffffffffffffffff1673ffffffffffffffffffffffffffffffffffffffff163373ffffffffffffffffffffffffffffffffffffffff1614610c77576040517f08c379a0000000000000000000000000000000000000000000000000000000008152600401610c6e90613837565b60405180910390fd5b6000600b60008473ffffffffffffffffffffffffffffffffffffffff1673ffffffffffffffffffffffffffffffffffffffff16815260200190815260200160002060006101000a81548160ff0219169083151502179055506000600c60008473ffffffffffffffffffffffffffffffffffffffff1673ffffffffffffffffffffffffffffffffffffffff168152602001908152602001600020819055508173ffffffffffffffffffffffffffffffffffffffff167fe94479a9f7e1952cc78f2d6baab678adc1b772d936c6583def489e524cb6669260405160405180910390a260019050919050565b600560009054906101000a900460ff1681565b600760009054906101000a900473ffffffffffffffffffffffffffffffffffffffff1681565b6000600b60003373ffffffffffffffffffffffffffffffffffffffff1673ffffffffffffffffffffffffffffffffffffffff16815260200190815260200160002060009054906101000a900460ff16610e27576040517f08c379a0000000000000000000000000000000000000000000000000000000008152600401610e1e90613717565b60405180910390fd5b33600260008273ffffffffffffffffffffffffffffffffffffffff1673ffffffffffffffffffffffffffffffffffffffff16815260200190815260200160002060009054906101000a900460ff1615610eb5576040517f08c379a0000000000000000000000000000000000000000000000000000000008152600401610eac90613897565b60405180910390fd5b83600260008273ffffffffffffffffffffffffffffffffffffffff1673ffffffffffffffffffffffffffffffffffffffff16815260200190815260200160002060009054906101000a900460ff1615610f43576040517f08c379a0000000000000000000000000000000000000000000000000000000008152600401610f3a90613897565b60405180910390fd5b600073ffffffffffffffffffffffffffffffffffffffff168573ffffffffffffffffffffffffffffffffffffffff161415610fb3576040517f08c379a0000000000000000000000000000000000000000000000000000000008152600401610faa90613677565b60405180910390fd5b60008411610ff6576040517f08c379a0000000000000000000000000000000000000000000000000000000008152600401610fed90613617565b60405180910390fd5b6000600c60003373ffffffffffffffffffffffffffffffffffffffff1673ffffffffffffffffffffffffffffffffffffffff1681526020019081526020016000205490508085111561107d576040517f08c379a000000000000000000000000000000000000000000000000000000000815260040161107490613697565b60405180910390fd5b61109285600a546128c190919063ffffffff16565b600a819055506110ea85600860008973ffffffffffffffffffffffffffffffffffffffff1673ffffffffffffffffffffffffffffffffffffffff168152602001908152602001600020546128c190919063ffffffff16565b600860008873ffffffffffffffffffffffffffffffffffffffff1673ffffffffffffffffffffffffffffffffffffffff1681526020019081526020016000208190555061114085826128ab90919063ffffffff16565b600c60003373ffffffffffffffffffffffffffffffffffffffff1673ffffffffffffffffffffffffffffffffffffffff168152602001908152602001600020819055508573ffffffffffffffffffffffffffffffffffffffff163373ffffffffffffffffffffffffffffffffffffffff167fab8530f87dc9b59234c4623bf917212bb2536d647574c8e7e5da92c2ede0c9f8876040516111e091906138b7565b60405180910390a38573ffffffffffffffffffffffffffffffffffffffff16600073ffffffffffffffffffffffffffffffffffffffff167fddf252ad1be2c89b69c2b068fc378daa952ba7f163c4a11628f55a4df523b3ef8760405161124691906138b7565b60405180910390a36001935050505092915050565b600b60003373ffffffffffffffffffffffffffffffffffffffff1673ffffffffffffffffffffffffffffffffffffffff16815260200190815260200160002060009054906101000a900460ff166112e7576040517f08c379a00000000000000000000000000000000000000000000000000000000081526004016112de90613717565b60405180910390fd5b33600260008273ffffffffffffffffffffffffffffffffffffffff1673ffffffffffffffffffffffffffffffffffffffff16815260200190815260200160002060009054906101000a900460ff1615611375576040517f08c379a000000000000000000000000000000000000000000000000000000000815260040161136c90613897565b60405180910390fd5b6000600860003373ffffffffffffffffffffffffffffffffffffffff1673ffffffffffffffffffffffffffffffffffffffff168152602001908152602001600020549050600083116113fc576040517f08c379a00000000000000000000000000000000000000000000000000000000081526004016113f390613857565b60405180910390fd5b8281101561143f576040517f08c379a0000000000000000000000000000000000000000000000000000000008152600401611436906136d7565b60405180910390fd5b61145483600a546128ab90919063ffffffff16565b600a8190555061146d83826128ab90919063ffffffff16565b600860003373ffffffffffffffffffffffffffffffffffffffff1673ffffffffffffffffffffffffffffffffffffffff168152602001908152602001600020819055503373ffffffffffffffffffffffffffffffffffffffff167fcc16f5dbb4873280815c1ee09dbd06736cffcc184412cf7a71a0fdb75d397ca5846040516114f691906138b7565b60405180910390a2600073ffffffffffffffffffffffffffffffffffffffff163373ffffffffffffffffffffffffffffffffffffffff167fddf252ad1be2c89b69c2b068fc378daa952ba7f163c4a11628f55a4df523b3ef8560405161155c91906138b7565b60405180910390a3505050565b6000600760009054906101000a900473ffffffffffffffffffffffffffffffffffffffff1673ffffffffffffffffffffffffffffffffffffffff163373ffffffffffffffffffffffffffffffffffffffff16146115fb576040517f08c379a00000000000000000000000000000000000000000000000000000000081526004016115f290613837565b60405180910390fd5b6001600b60008573ffffffffffffffffffffffffffffffffffffffff1673ffffffffffffffffffffffffffffffffffffffff16815260200190815260200160002060006101000a81548160ff02191690831515021790555081600c60008573ffffffffffffffffffffffffffffffffffffffff1673ffffffffffffffffffffffffffffffffffffffff168152602001908152602001600020819055508273ffffffffffffffffffffffffffffffffffffffff167f46980fca912ef9bcdbd36877427b6b90e860769f604e89c0e67720cece530d20836040516116dd91906138b7565b60405180910390a26001905092915050565b6000600860008373ffffffffffffffffffffffffffffffffffffffff1673ffffffffffffffffffffffffffffffffffffffff168152602001908152602001600020549050919050565b6000600c60008373ffffffffffffffffffffffffffffffffffffffff1673ffffffffffffffffffffffffffffffffffffffff168152602001908152602001600020549050919050565b60008060009054906101000a900473ffffffffffffffffffffffffffffffffffffffff16905090565b600480546117b790613a8b565b80601f01602080910402602001604051908101604052809291908181526020018280546117e390613a8b565b80156118305780601f1061180557610100808354040283529160200191611830565b820191906000526020600020905b81548152906001019060200180831161181357829003601f168201915b505050505081565b600033600260008273ffffffffffffffffffffffffffffffffffffffff1673ffffffffffffffffffffffffffffffffffffffff16815260200190815260200160002060009054906101000a900460ff16156118c8576040517f08c379a00000000000000000000000000000000000000000000000000000000081526004016118bf90613897565b60405180910390fd5b83600260008273ffffffffffffffffffffffffffffffffffffffff1673ffffffffffffffffffffffffffffffffffffffff16815260200190815260200160002060009054906101000a900460ff1615611956576040517f08c379a000000000000000000000000000000000000000000000000000000000815260040161194d90613897565b60405180910390fd5b6119613386866125b5565b60019250505092915050565b60008054906101000a900473ffffffffffffffffffffffffffffffffffffffff1673ffffffffffffffffffffffffffffffffffffffff163373ffffffffffffffffffffffffffffffffffffffff16146119fb576040517f08c379a00000000000000000000000000000000000000000000000000000000081526004016119f290613777565b60405180910390fd5b600073ffffffffffffffffffffffffffffffffffffffff168173ffffffffffffffffffffffffffffffffffffffff161415611a6b576040517f08c379a0000000000000000000000000000000000000000000000000000000008152600401611a62906137b7565b60405180910390fd5b80600760006101000a81548173ffffffffffffffffffffffffffffffffffffffff021916908373ffffffffffffffffffffffffffffffffffffffff160217905550600760009054906101000a900473ffffffffffffffffffffffffffffffffffffffff1673ffffffffffffffffffffffffffffffffffffffff167fdb66dfa9c6b8f5226fe9aac7e51897ae8ee94ac31dc70bb6c9900b2574b707e660405160405180910390a250565b6000600b60008373ffffffffffffffffffffffffffffffffffffffff1673ffffffffffffffffffffffffffffffffffffffff16815260200190815260200160002060009054906101000a900460ff169050919050565b60008054906101000a900473ffffffffffffffffffffffffffffffffffffffff1673ffffffffffffffffffffffffffffffffffffffff163373ffffffffffffffffffffffffffffffffffffffff1614611bf8576040517f08c379a0000000000000000000000000000000000000000000000000000000008152600401611bef90613777565b60405180910390fd5b600073ffffffffffffffffffffffffffffffffffffffff168173ffffffffffffffffffffffffffffffffffffffff161415611c68576040517f08c379a0000000000000000000000000000000000000000000000000000000008152600401611c5f90613877565b60405180910390fd5b80600160006101000a81548173ffffffffffffffffffffffffffffffffffffffff021916908373ffffffffffffffffffffffffffffffffffffffff160217905550600160009054906101000a900473ffffffffffffffffffffffffffffffffffffffff1673ffffffffffffffffffffffffffffffffffffffff167fc67398012c111ce95ecb7429b933096c977380ee6c421175a71a4a4c6c88c06e60405160405180910390a250565b600760149054906101000a900460ff1615611d61576040517f08c379a0000000000000000000000000000000000000000000000000000000008152600401611d5890613797565b60405180910390fd5b600073ffffffffffffffffffffffffffffffffffffffff168373ffffffffffffffffffffffffffffffffffffffff161415611dd1576040517f08c379a0000000000000000000000000000000000000000000000000000000008152600401611dc8906137b7565b60405180910390fd5b600073ffffffffffffffffffffffffffffffffffffffff168273ffffffffffffffffffffffffffffffffffffffff161415611e41576040517f08c379a0000000000000000000000000000000000000000000000000000000008152600401611e3890613737565b60405180910390fd5b600073ffffffffffffffffffffffffffffffffffffffff168173ffffffffffffffffffffffffffffffffffffffff161415611eb1576040517f08c379a0000000000000000000000000000000000000000000000000000000008152600401611ea8906137d7565b60405180910390fd5b8660039080519060200190611ec792919061291a565b508560049080519060200190611ede92919061291a565b508460069080519060200190611ef592919061291a565b5083600560006101000a81548160ff021916908360ff16021790555082600760006101000a81548173ffffffffffffffffffffffffffffffffffffffff021916908373ffffffffffffffffffffffffffffffffffffffff16021790555081600160006101000a81548173ffffffffffffffffffffffffffffffffffffffff021916908373ffffffffffffffffffffffffffffffffffffffff160217905550611f9c816128d7565b6000600a819055506001600760146101000a81548160ff02191690831515021790555050505050505050565b600160009054906101000a900473ffffffffffffffffffffffffffffffffffffffff1681565b6000600960008473ffffffffffffffffffffffffffffffffffffffff1673ffffffffffffffffffffffffffffffffffffffff16815260200190815260200160002060008373ffffffffffffffffffffffffffffffffffffffff1673ffffffffffffffffffffffffffffffffffffffff16815260200190815260200160002054905092915050565b6006805461208290613a8b565b80601f01602080910402602001604051908101604052809291908181526020018280546120ae90613a8b565b80156120fb5780601f106120d0576101008083540402835291602001916120fb565b820191906000526020600020905b8154815290600101906020018083116120de57829003601f168201915b505050505081565b60008054906101000a900473ffffffffffffffffffffffffffffffffffffffff1673ffffffffffffffffffffffffffffffffffffffff163373ffffffffffffffffffffffffffffffffffffffff1614612191576040517f08c379a000000000000000000000000000000000000000000000000000000000815260040161218890613777565b60405180910390fd5b600073ffffffffffffffffffffffffffffffffffffffff168173ffffffffffffffffffffffffffffffffffffffff161415612201576040517f08c379a00000000000000000000000000000000000000000000000000000000081526004016121f890613637565b60405180910390fd5b7f8be0079c531659141344cd1fd0a4f28419497f9722a3daafe3b4186f6b6457e060008054906101000a900473ffffffffffffffffffffffffffffffffffffffff1682604051612252929190613591565b60405180910390a1612263816128d7565b50565b600160009054906101000a900473ffffffffffffffffffffffffffffffffffffffff1673ffffffffffffffffffffffffffffffffffffffff163373ffffffffffffffffffffffffffffffffffffffff16146122f6576040517f08c379a00000000000000000000000000000000000000000000000000000000081526004016122ed906136f7565b60405180910390fd5b6001600260008373ffffffffffffffffffffffffffffffffffffffff1673ffffffffffffffffffffffffffffffffffffffff16815260200190815260200160002060006101000a81548160ff0219169083151502179055508073ffffffffffffffffffffffffffffffffffffffff167fffa4e6181777692565cf28528fc88fd1516ea86b56da075235fa575af6a4b85560405160405180910390a250565b6000600260008373ffffffffffffffffffffffffffffffffffffffff1673ffffffffffffffffffffffffffffffffffffffff16815260200190815260200160002060009054906101000a900460ff169050919050565b600073ffffffffffffffffffffffffffffffffffffffff168373ffffffffffffffffffffffffffffffffffffffff16141561245a576040517f08c379a000000000000000000000000000000000000000000000000000000000815260040161245190613817565b60405180910390fd5b600073ffffffffffffffffffffffffffffffffffffffff168273ffffffffffffffffffffffffffffffffffffffff1614156124ca576040517f08c379a00000000000000000000000000000000000000000000000000000000081526004016124c190613657565b60405180910390fd5b80600960008573ffffffffffffffffffffffffffffffffffffffff1673ffffffffffffffffffffffffffffffffffffffff16815260200190815260200160002060008473ffffffffffffffffffffffffffffffffffffffff1673ffffffffffffffffffffffffffffffffffffffff168152602001908152602001600020819055508173ffffffffffffffffffffffffffffffffffffffff168373ffffffffffffffffffffffffffffffffffffffff167f8c5be1e5ebec7d5bd14f71427d1e84f3dd0314c0f7b2291e5b200ac8c7c3b925836040516125a891906138b7565b60405180910390a3505050565b600073ffffffffffffffffffffffffffffffffffffffff168373ffffffffffffffffffffffffffffffffffffffff161415612625576040517f08c379a000000000000000000000000000000000000000000000000000000000815260040161261c906137f7565b60405180910390fd5b600073ffffffffffffffffffffffffffffffffffffffff168273ffffffffffffffffffffffffffffffffffffffff161415612695576040517f08c379a000000000000000000000000000000000000000000000000000000000815260040161268c906135f7565b60405180910390fd5b600860008473ffffffffffffffffffffffffffffffffffffffff1673ffffffffffffffffffffffffffffffffffffffff16815260200190815260200160002054811115612717576040517f08c379a000000000000000000000000000000000000000000000000000000000815260040161270e906136b7565b60405180910390fd5b61276981600860008673ffffffffffffffffffffffffffffffffffffffff1673ffffffffffffffffffffffffffffffffffffffff168152602001908152602001600020546128ab90919063ffffffff16565b600860008573ffffffffffffffffffffffffffffffffffffffff1673ffffffffffffffffffffffffffffffffffffffff168152602001908152602001600020819055506127fe81600860008573ffffffffffffffffffffffffffffffffffffffff1673ffffffffffffffffffffffffffffffffffffffff168152602001908152602001600020546128c190919063ffffffff16565b600860008473ffffffffffffffffffffffffffffffffffffffff1673ffffffffffffffffffffffffffffffffffffffff168152602001908152602001600020819055508173ffffffffffffffffffffffffffffffffffffffff168373ffffffffffffffffffffffffffffffffffffffff167fddf252ad1be2c89b69c2b068fc378daa952ba7f163c4a11628f55a4df523b3ef8360405161289e91906138b7565b60405180910390a3505050565b600081836128b991906139c0565b905092915050565b600081836128cf919061396a565b905092915050565b806000806101000a81548173ffffffffffffffffffffffffffffffffffffffff021916908373ffffffffffffffffffffffffffffffffffffffff16021790555050565b82805461292690613a8b565b90600052602060002090601f016020900481019282612948576000855561298f565b82601f1061296157805160ff191683800117855561298f565b8280016001018555821561298f579182015b8281111561298e578251825591602001919060010190612973565b5b50905061299c91906129a0565b5090565b5b808211156129b95760008160009055506001016129a1565b5090565b60006129d06129cb8461391e565b6138ed565b9050828152602081018484840111156129e857600080fd5b6129f3848285613a49565b509392505050565b600081359050612a0a81613b5b565b92915050565b600082601f830112612a2157600080fd5b8135612a318482602086016129bd565b91505092915050565b600081359050612a4981613b72565b92915050565b600081359050612a5e81613b89565b92915050565b600060208284031215612a7657600080fd5b6000612a84848285016129fb565b91505092915050565b60008060408385031215612aa057600080fd5b6000612aae858286016129fb565b9250506020612abf858286016129fb565b9150509250929050565b600080600060608486031215612ade57600080fd5b6000612aec868287016129fb565b9350506020612afd868287016129fb565b9250506040612b0e86828701612a3a565b9150509250925092565b60008060408385031215612b2b57600080fd5b6000612b39858286016129fb565b9250506020612b4a85828601612a3a565b9150509250929050565b600080600080600080600060e0888a031215612b6f57600080fd5b600088013567ffffffffffffffff811115612b8957600080fd5b612b958a828b01612a10565b975050602088013567ffffffffffffffff811115612bb257600080fd5b612bbe8a828b01612a10565b965050604088013567ffffffffffffffff811115612bdb57600080fd5b612be78a828b01612a10565b9550506060612bf88a828b01612a4f565b9450506080612c098a828b016129fb565b93505060a0612c1a8a828b016129fb565b92505060c0612c2b8a828b016129fb565b91505092959891949750929550565b600060208284031215612c4c57600080fd5b6000612c5a84828501612a3a565b91505092915050565b612c6c816139f4565b82525050565b612c7b81613a06565b82525050565b6000612c8c8261394e565b612c968185613959565b9350612ca6818560208601613a58565b612caf81613b4a565b840191505092915050565b6000612cc7602383613959565b91507f45524332303a207472616e7366657220746f20746865207a65726f206164647260008301527f65737300000000000000000000000000000000000000000000000000000000006020830152604082019050919050565b6000612d2d602a83613959565b91507f466961744261636b65643a206d696e7420616d6f756e74206e6f74206772656160008301527f746572207468616e2030000000000000000000000000000000000000000000006020830152604082019050919050565b6000612d93602683613959565b91507f4f776e61626c653a206e6577206f776e657220697320746865207a65726f206160008301527f64647265737300000000000000000000000000000000000000000000000000006020830152604082019050919050565b6000612df9602283613959565b91507f45524332303a20617070726f766520746f20746865207a65726f20616464726560008301527f73730000000000000000000000000000000000000000000000000000000000006020830152604082019050919050565b6000612e5f602483613959565b91507f466961744261636b65643a206d696e7420746f20746865207a65726f2061646460008301527f72657373000000000000000000000000000000000000000000000000000000006020830152604082019050919050565b6000612ec5602f83613959565b91507f466961744261636b65643a206d696e7420616d6f756e7420657863656564732060008301527f6d696e746572416c6c6f77616e636500000000000000000000000000000000006020830152604082019050919050565b6000612f2b602683613959565b91507f45524332303a207472616e7366657220616d6f756e742065786365656473206260008301527f616c616e636500000000000000000000000000000000000000000000000000006020830152604082019050919050565b6000612f91602783613959565b91507f466961744261636b65643a206275726e20616d6f756e7420657863656564732060008301527f62616c616e6365000000000000000000000000000000000000000000000000006020830152604082019050919050565b6000612ff7602c83613959565b91507f426c61636b6c69737461626c653a2063616c6c6572206973206e6f742074686560008301527f20626c61636b6c697374657200000000000000000000000000000000000000006020830152604082019050919050565b600061305d602283613959565b91507f466961744261636b65643a2063616c6c6572206973206e6f742061206d696e7460008301527f65720000000000000000000000000000000000000000000000000000000000006020830152604082019050919050565b60006130c3602f83613959565b91507f466961744261636b65643a206e657720626c61636b6c6973746572206973207460008301527f6865207a65726f206164647265737300000000000000000000000000000000006020830152604082019050919050565b6000613129602883613959565b91507f45524332303a207472616e7366657220616d6f756e742065786365656473206160008301527f6c6c6f77616e63650000000000000000000000000000000000000000000000006020830152604082019050919050565b600061318f602083613959565b91507f4f776e61626c653a2063616c6c6572206973206e6f7420746865206f776e65726000830152602082019050919050565b60006131cf603083613959565b91507f466961744261636b6564546f6b656e3a20636f6e747261637420697320616c7260008301527f6561647920696e697469616c697a6564000000000000000000000000000000006020830152604082019050919050565b6000613235603083613959565b91507f466961744261636b65643a206e6577206d61737465724d696e7465722069732060008301527f746865207a65726f2061646472657373000000000000000000000000000000006020830152604082019050919050565b600061329b602983613959565b91507f466961744261636b65643a206e6577206f776e657220697320746865207a657260008301527f6f206164647265737300000000000000000000000000000000000000000000006020830152604082019050919050565b6000613301602583613959565b91507f45524332303a207472616e736665722066726f6d20746865207a65726f20616460008301527f64726573730000000000000000000000000000000000000000000000000000006020830152604082019050919050565b6000613367602483613959565b91507f45524332303a20617070726f76652066726f6d20746865207a65726f2061646460008301527f72657373000000000000000000000000000000000000000000000000000000006020830152604082019050919050565b60006133cd602a83613959565b91507f466961744261636b65643a2063616c6c6572206973206e6f7420746865206d6160008301527f737465724d696e746572000000000000000000000000000000000000000000006020830152604082019050919050565b6000613433602a83613959565b91507f466961744261636b65643a206275726e20616d6f756e74206e6f74206772656160008301527f746572207468616e2030000000000000000000000000000000000000000000006020830152604082019050919050565b6000613499603283613959565b91507f426c61636b6c69737461626c653a206e657720626c61636b6c6973746572206960008301527f7320746865207a65726f206164647265737300000000000000000000000000006020830152604082019050919050565b60006134ff602583613959565b91507f426c61636b6c69737461626c653a206163636f756e7420697320626c61636b6c60008301527f69737465640000000000000000000000000000000000000000000000000000006020830152604082019050919050565b61356181613a32565b82525050565b61357081613a3c565b82525050565b600060208201905061358b6000830184612c63565b92915050565b60006040820190506135a66000830185612c63565b6135b36020830184612c63565b9392505050565b60006020820190506135cf6000830184612c72565b92915050565b600060208201905081810360008301526135ef8184612c81565b905092915050565b6000602082019050818103600083015261361081612cba565b9050919050565b6000602082019050818103600083015261363081612d20565b9050919050565b6000602082019050818103600083015261365081612d86565b9050919050565b6000602082019050818103600083015261367081612dec565b9050919050565b6000602082019050818103600083015261369081612e52565b9050919050565b600060208201905081810360008301526136b081612eb8565b9050919050565b600060208201905081810360008301526136d081612f1e565b9050919050565b600060208201905081810360008301526136f081612f84565b9050919050565b6000602082019050818103600083015261371081612fea565b9050919050565b6000602082019050818103600083015261373081613050565b9050919050565b60006020820190508181036000830152613750816130b6565b9050919050565b600060208201905081810360008301526137708161311c565b9050919050565b6000602082019050818103600083015261379081613182565b9050919050565b600060208201905081810360008301526137b0816131c2565b9050919050565b600060208201905081810360008301526137d081613228565b9050919050565b600060208201905081810360008301526137f08161328e565b9050919050565b60006020820190508181036000830152613810816132f4565b9050919050565b600060208201905081810360008301526138308161335a565b9050919050565b60006020820190508181036000830152613850816133c0565b9050919050565b6000602082019050818103600083015261387081613426565b9050919050565b600060208201905081810360008301526138908161348c565b9050919050565b600060208201905081810360008301526138b0816134f2565b9050919050565b60006020820190506138cc6000830184613558565b92915050565b60006020820190506138e76000830184613567565b92915050565b6000604051905081810181811067ffffffffffffffff8211171561391457613913613b1b565b5b8060405250919050565b600067ffffffffffffffff82111561393957613938613b1b565b5b601f19601f8301169050602081019050919050565b600081519050919050565b600082825260208201905092915050565b600061397582613a32565b915061398083613a32565b9250827fffffffffffffffffffffffffffffffffffffffffffffffffffffffffffffffff038211156139b5576139b4613abd565b5b828201905092915050565b60006139cb82613a32565b91506139d683613a32565b9250828210156139e9576139e8613abd565b5b828203905092915050565b60006139ff82613a12565b9050919050565b60008115159050919050565b600073ffffffffffffffffffffffffffffffffffffffff82169050919050565b6000819050919050565b600060ff82169050919050565b82818337600083830152505050565b60005b83811015613a76578082015181840152602081019050613a5b565b83811115613a85576000848401525b50505050565b60006002820490506001821680613aa357607f821691505b60208210811415613ab757613ab6613aec565b5b50919050565b7f4e487b7100000000000000000000000000000000000000000000000000000000600052601160045260246000fd5b7f4e487b7100000000000000000000000000000000000000000000000000000000600052602260045260246000fd5b7f4e487b7100000000000000000000000000000000000000000000000000000000600052604160045260246000fd5b6000601f19601f8301169050919050565b613b64816139f4565b8114613b6f57600080fd5b50565b613b7b81613a32565b8114613b8657600080fd5b50565b613b9281613a3c565b8114613b9d57600080fd5b5056fea2646970667358221220d37b4b269602cd9a4b3e98e8ac1e0d1ed75efe0f33773582f0f6d44a1a1b9ef164736f6c63430008000033",
  "immutableReferences": {},
  "source": "/**\n * Copyright (c) 2018-2020 CENTRE SECZ\n *\n * Permission is hereby granted, free of charge, to any person obtaining a copy\n * of this software and associated documentation files (the \"Software\"), to deal\n * in the Software without restriction, including without limitation the rights\n * to use, copy, modify, merge, publish, distribute, sublicense, and/or sell\n * copies of the Software, and to permit persons to whom the Software is\n * furnished to do so, subject to the following conditions:\n *\n * The above copyright notice and this permission notice shall be included in\n * copies or substantial portions of the Software.\n *\n * THE SOFTWARE IS PROVIDED \"AS IS\", WITHOUT WARRANTY OF ANY KIND, EXPRESS OR\n * IMPLIED, INCLUDING BUT NOT LIMITED TO THE WARRANTIES OF MERCHANTABILITY,\n * FITNESS FOR A PARTICULAR PURPOSE AND NONINFRINGEMENT. IN NO EVENT SHALL THE\n * AUTHORS OR COPYRIGHT HOLDERS BE LIABLE FOR ANY CLAIM, DAMAGES OR OTHER\n * LIABILITY, WHETHER IN AN ACTION OF CONTRACT, TORT OR OTHERWISE, ARISING FROM,\n * OUT OF OR IN CONNECTION WITH THE SOFTWARE OR THE USE OR OTHER DEALINGS IN THE\n * SOFTWARE.\n */\n \n pragma solidity ^0.8.0;\n\nimport \"@openzeppelin/contracts/utils/math/SafeMath.sol\";\nimport \"@openzeppelin/contracts/utils/Address.sol\";\nimport \"./AbstractFiatBackedV1.sol\";\nimport \"./BlackListable.sol\";\nimport \"./Ownable.sol\";\n\ncontract FiatBackedV0 is AbstractFiatBackedV1, OwnableV0, BlackListable {\n    using SafeMath for uint256;\n\n    string public name;\n    string public symbol;\n    uint8 public decimals;\n    string public currency;\n    address public masterMinter;\n    bool internal initialized;\n\n    mapping(address => uint256) internal balances;\n    mapping(address => mapping(address => uint256)) internal allowed;\n    uint256 internal totalSupply_;\n    mapping(address => bool) internal minters;\n    mapping(address => uint256) internal minterAllowed;\n\n    event Mint(address indexed minter, address indexed to, uint256 amount);\n    event Burn(address indexed burner, uint256 amount);\n    event MinterConfigured(address indexed minter, uint256 minterAllowedAmount);\n    event MinterRemoved(address indexed oldMinter);\n    event MasterMinterChanged(address indexed newMasterMinter);\n\n    function initialize(\n        string memory tokenName,\n        string memory tokenSymbol,\n        string memory tokenCurrency,\n        uint8 tokenDecimals,\n        address newMasterMinter,\n        address newBlacklister,\n        address newOwner\n    ) public {\n        require(!initialized, \"FiatBackedToken: contract is already initialized\");\n        require(\n            newMasterMinter != address(0),\n            \"FiatBacked: new masterMinter is the zero address\"\n        );\n        require(\n            newBlacklister != address(0),\n            \"FiatBacked: new blacklister is the zero address\"\n        );\n        require(\n            newOwner != address(0),\n            \"FiatBacked: new owner is the zero address\"\n        );\n\n        name = tokenName;\n        symbol = tokenSymbol;\n        currency = tokenCurrency;\n        decimals = tokenDecimals;\n        masterMinter = newMasterMinter;\n        blacklister = newBlacklister;\n        setOwner(newOwner);\n        totalSupply_ = 0;\n        initialized = true;\n    }\n\n    /**\n     * @dev Throws if called by any account other than a minter\n     */\n    modifier onlyMinters() {\n        require(minters[msg.sender], \"FiatBacked: caller is not a minter\");\n        _;\n    }\n\n    /**\n     * @dev Function to mint tokens\n     * @param _to The address that will receive the minted tokens.\n     * @param _amount The amount of tokens to mint. Must be less than or equal\n     * to the minterAllowance of the caller.\n     * @return A boolean that indicates if the operation was successful.\n     */\n    function mint(address _to, uint256 _amount)\n        external\n        onlyMinters\n        notBlacklisted(msg.sender)\n        notBlacklisted(_to)\n        returns (bool)\n    {\n        require(_to != address(0), \"FiatBacked: mint to the zero address\");\n        require(_amount > 0, \"FiatBacked: mint amount not greater than 0\");\n\n        uint256 mintingAllowedAmount = minterAllowed[msg.sender];\n        require(\n            _amount <= mintingAllowedAmount,\n            \"FiatBacked: mint amount exceeds minterAllowance\"\n        );\n\n        totalSupply_ = totalSupply_.add(_amount);\n        balances[_to] = balances[_to].add(_amount);\n        minterAllowed[msg.sender] = mintingAllowedAmount.sub(_amount);\n        emit Mint(msg.sender, _to, _amount);\n        emit Transfer(address(0), _to, _amount);\n        return true;\n    }\n\n    /**\n     * @dev Throws if called by any account other than the masterMinter\n     */\n    modifier onlyMasterMinter() {\n        require(\n            msg.sender == masterMinter,\n            \"FiatBacked: caller is not the masterMinter\"\n        );\n        _;\n    }\n\n    /**\n     * @dev Get minter allowance for an account\n     * @param minter The address of the minter\n     */\n    function minterAllowance(address minter) external view returns (uint256) {\n        return minterAllowed[minter];\n    }\n\n    /**\n     * @dev Checks if account is a minter\n     * @param account The address to check\n     */\n    function isMinter(address account) external view returns (bool) {\n        return minters[account];\n    }\n\n    /**\n     * @notice Amount of remaining tokens spender is allowed to transfer on\n     * behalf of the token owner\n     * @param owner     Token owner's address\n     * @param spender   Spender's address\n     * @return Allowance amount\n     */\n    function allowance(address owner, address spender)\n        external\n        override\n        view\n        returns (uint256)\n    {\n        return allowed[owner][spender];\n    }\n\n    /**\n     * @dev Get totalSupply of token\n     */\n    function totalSupply() external override view returns (uint256) {\n        return totalSupply_;\n    }\n\n    /**\n     * @dev Get token balance of an account\n     * @param account address The account\n     */\n    function balanceOf(address account)\n        external\n        override\n        view\n        returns (uint256)\n    {\n        return balances[account];\n    }\n\n    /**\n     * @notice Set spender's allowance over the caller's tokens to be a given\n     * value.\n     * @param spender   Spender's address\n     * @param value     Allowance amount\n     * @return True if successful\n     */\n    function approve(address spender, uint256 value)\n        external\n        override\n        notBlacklisted(msg.sender)\n        notBlacklisted(spender)\n        returns (bool)\n    {\n        _approve(msg.sender, spender, value);\n        return true;\n    }\n\n    /**\n     * @dev Internal function to set allowance\n     * @param owner     Token owner's address\n     * @param spender   Spender's address\n     * @param value     Allowance amount\n     */\n    function _approve(\n        address owner,\n        address spender,\n        uint256 value\n    ) internal override {\n        require(owner != address(0), \"ERC20: approve from the zero address\");\n        require(spender != address(0), \"ERC20: approve to the zero address\");\n        allowed[owner][spender] = value;\n        emit Approval(owner, spender, value);\n    }\n\n    /**\n     * @notice Transfer tokens by spending allowance\n     * @param from  Payer's address\n     * @param to    Payee's address\n     * @param value Transfer amount\n     * @return True if successful\n     */\n    function transferFrom(\n        address from,\n        address to,\n        uint256 value\n    )\n        external\n        override\n        notBlacklisted(msg.sender)\n        notBlacklisted(from)\n        notBlacklisted(to)\n        returns (bool)\n    {\n        require(\n            value <= allowed[from][msg.sender],\n            \"ERC20: transfer amount exceeds allowance\"\n        );\n        _transfer(from, to, value);\n        allowed[from][msg.sender] = allowed[from][msg.sender].sub(value);\n        return true;\n    }\n\n    /**\n     * @notice Transfer tokens from the caller\n     * @param to    Payee's address\n     * @param value Transfer amount\n     * @return True if successful\n     */\n    function transfer(address to, uint256 value)\n        external\n        override\n        notBlacklisted(msg.sender)\n        notBlacklisted(to)\n        returns (bool)\n    {\n        _transfer(msg.sender, to, value);\n        return true;\n    }\n\n    /**\n     * @notice Internal function to process transfers\n     * @param from  Payer's address\n     * @param to    Payee's address\n     * @param value Transfer amount\n     */\n    function _transfer(\n        address from,\n        address to,\n        uint256 value\n    ) internal override {\n        require(from != address(0), \"ERC20: transfer from the zero address\");\n        require(to != address(0), \"ERC20: transfer to the zero address\");\n        require(\n            value <= balances[from],\n            \"ERC20: transfer amount exceeds balance\"\n        );\n\n        balances[from] = balances[from].sub(value);\n        balances[to] = balances[to].add(value);\n        emit Transfer(from, to, value);\n    }\n\n    /**\n     * @dev Function to add/update a new minter\n     * @param minter The address of the minter\n     * @param minterAllowedAmount The minting amount allowed for the minter\n     * @return True if the operation was successful.\n     */\n    function configureMinter(address minter, uint256 minterAllowedAmount)\n        external\n        onlyMasterMinter\n        returns (bool)\n    {\n        minters[minter] = true;\n        minterAllowed[minter] = minterAllowedAmount;\n        emit MinterConfigured(minter, minterAllowedAmount);\n        return true;\n    }\n\n    /**\n     * @dev Function to remove a minter\n     * @param minter The address of the minter to remove\n     * @return True if the operation was successful.\n     */\n    function removeMinter(address minter)\n        external\n        onlyMasterMinter\n        returns (bool)\n    {\n        minters[minter] = false;\n        minterAllowed[minter] = 0;\n        emit MinterRemoved(minter);\n        return true;\n    }\n\n    /**\n     * @dev allows a minter to burn some of its own tokens\n     * Validates that caller is a minter and that sender is not blacklisted\n     * amount is less than or equal to the minter's account balance\n     * @param _amount uint256 the amount of tokens to be burned\n     */\n    function burn(uint256 _amount)\n        external\n        onlyMinters\n        notBlacklisted(msg.sender)\n    {\n        uint256 balance = balances[msg.sender];\n        require(_amount > 0, \"FiatBacked: burn amount not greater than 0\");\n        require(balance >= _amount, \"FiatBacked: burn amount exceeds balance\");\n\n        totalSupply_ = totalSupply_.sub(_amount);\n        balances[msg.sender] = balance.sub(_amount);\n        emit Burn(msg.sender, _amount);\n        emit Transfer(msg.sender, address(0), _amount);\n    }\n\n    function updateMasterMinter(address _newMasterMinter) external onlyOwner {\n        require(\n            _newMasterMinter != address(0),\n            \"FiatBacked: new masterMinter is the zero address\"\n        );\n        masterMinter = _newMasterMinter;\n        emit MasterMinterChanged(masterMinter);\n    }\n}",
  "sourcePath": "/Users/luisoscargabriel/luisgj/fiat-backed-token/contracts/FiatBacked.sol",
  "compiler": {
    "name": "solc",
    "version": "0.8.0+commit.c7dfd78e.Emscripten.clang"
  },
  "schemaVersion": "3.4.1",
  "updatedAt": "2021-06-20T04:04:15.166Z",
  "networkType": "ethereum",
  "devdoc": {
    "kind": "dev",
    "methods": {
      "allowance(address,address)": {
        "params": {
          "owner": "Token owner's address",
          "spender": "Spender's address"
        },
        "returns": {
          "_0": "Allowance amount"
        }
      },
      "approve(address,uint256)": {
        "params": {
          "spender": "Spender's address",
          "value": "Allowance amount"
        },
        "returns": {
          "_0": "True if successful"
        }
      },
      "balanceOf(address)": {
        "details": "Get token balance of an account",
        "params": {
          "account": "address The account"
        }
      },
      "blacklist(address)": {
        "details": "Adds account to blacklist",
        "params": {
          "_account": "The address to blacklist"
        }
      },
      "burn(uint256)": {
        "details": "allows a minter to burn some of its own tokens Validates that caller is a minter and that sender is not blacklisted amount is less than or equal to the minter's account balance",
        "params": {
          "_amount": "uint256 the amount of tokens to be burned"
        }
      },
      "configureMinter(address,uint256)": {
        "details": "Function to add/update a new minter",
        "params": {
          "minter": "The address of the minter",
          "minterAllowedAmount": "The minting amount allowed for the minter"
        },
        "returns": {
          "_0": "True if the operation was successful."
        }
      },
      "isBlacklisted(address)": {
        "details": "Checks if account is blacklisted",
        "params": {
          "_account": "The address to check"
        }
      },
      "isMinter(address)": {
        "details": "Checks if account is a minter",
        "params": {
          "account": "The address to check"
        }
      },
      "mint(address,uint256)": {
        "details": "Function to mint tokens",
        "params": {
          "_amount": "The amount of tokens to mint. Must be less than or equal to the minterAllowance of the caller.",
          "_to": "The address that will receive the minted tokens."
        },
        "returns": {
          "_0": "A boolean that indicates if the operation was successful."
        }
      },
      "minterAllowance(address)": {
        "details": "Get minter allowance for an account",
        "params": {
          "minter": "The address of the minter"
        }
      },
      "owner()": {
        "details": "Tells the address of the owner",
        "returns": {
          "_0": "the address of the owner"
        }
      },
      "removeMinter(address)": {
        "details": "Function to remove a minter",
        "params": {
          "minter": "The address of the minter to remove"
        },
        "returns": {
          "_0": "True if the operation was successful."
        }
      },
      "totalSupply()": {
        "details": "Get totalSupply of token"
      },
      "transfer(address,uint256)": {
        "params": {
          "to": "Payee's address",
          "value": "Transfer amount"
        },
        "returns": {
          "_0": "True if successful"
        }
      },
      "transferFrom(address,address,uint256)": {
        "params": {
          "from": "Payer's address",
          "to": "Payee's address",
          "value": "Transfer amount"
        },
        "returns": {
          "_0": "True if successful"
        }
      },
      "transferOwnership(address)": {
        "details": "Allows the current owner to transfer control of the contract to a newOwner.",
        "params": {
          "newOwner": "The address to transfer ownership to."
        }
      },
      "unBlacklist(address)": {
        "details": "Removes account from blacklist",
        "params": {
          "_account": "The address to remove from the blacklist"
        }
      }
    },
    "version": 1
  },
  "userdoc": {
    "kind": "user",
    "methods": {
      "allowance(address,address)": {
        "notice": "Amount of remaining tokens spender is allowed to transfer on behalf of the token owner"
      },
      "approve(address,uint256)": {
        "notice": "Set spender's allowance over the caller's tokens to be a given value."
      },
      "transfer(address,uint256)": {
        "notice": "Transfer tokens from the caller"
      },
      "transferFrom(address,address,uint256)": {
        "notice": "Transfer tokens by spending allowance"
      }
    },
    "version": 1
  }
}