{
  "contractName": "FiatBackedExchangeV0",
  "abi": [
    {
      "anonymous": false,
      "inputs": [
        {
          "indexed": true,
          "internalType": "address",
          "name": "toAddress",
          "type": "address"
        },
        {
          "indexed": false,
          "internalType": "uint256",
          "name": "amount",
          "type": "uint256"
        },
        {
          "indexed": false,
          "internalType": "uint256",
          "name": "rate",
          "type": "uint256"
        }
      ],
      "name": "Exchange",
      "type": "event"
    },
    {
      "anonymous": false,
      "inputs": [
        {
          "indexed": false,
          "internalType": "address",
          "name": "previousOwner",
          "type": "address"
        },
        {
          "indexed": false,
          "internalType": "address",
          "name": "newOwner",
          "type": "address"
        }
      ],
      "name": "OwnershipTransferred",
      "type": "event"
    },
    {
      "inputs": [],
      "name": "decimals",
      "outputs": [
        {
          "internalType": "uint8",
          "name": "",
          "type": "uint8"
        }
      ],
      "stateMutability": "view",
      "type": "function"
    },
    {
      "inputs": [],
      "name": "name",
      "outputs": [
        {
          "internalType": "string",
          "name": "",
          "type": "string"
        }
      ],
      "stateMutability": "view",
      "type": "function"
    },
    {
      "inputs": [],
      "name": "owner",
      "outputs": [
        {
          "internalType": "address",
          "name": "",
          "type": "address"
        }
      ],
      "stateMutability": "view",
      "type": "function"
    },
    {
      "inputs": [],
      "name": "symbol",
      "outputs": [
        {
          "internalType": "string",
          "name": "",
          "type": "string"
        }
      ],
      "stateMutability": "view",
      "type": "function"
    },
    {
      "inputs": [
        {
          "internalType": "address",
          "name": "newOwner",
          "type": "address"
        }
      ],
      "name": "transferOwnership",
      "outputs": [],
      "stateMutability": "nonpayable",
      "type": "function"
    },
    {
      "inputs": [
        {
          "internalType": "string",
          "name": "tokenName",
          "type": "string"
        },
        {
          "internalType": "string",
          "name": "tokenSymbol",
          "type": "string"
        },
        {
          "internalType": "uint8",
          "name": "tokenDecimals",
          "type": "uint8"
        },
        {
          "internalType": "address",
          "name": "newOwner",
          "type": "address"
        }
      ],
      "name": "initialize",
      "outputs": [],
      "stateMutability": "nonpayable",
      "type": "function"
    },
    {
      "inputs": [
        {
          "internalType": "address",
          "name": "toAddress",
          "type": "address"
        },
        {
          "internalType": "uint256",
          "name": "amount",
          "type": "uint256"
        },
        {
          "internalType": "uint256",
          "name": "rate",
          "type": "uint256"
        }
      ],
      "name": "exchange",
      "outputs": [],
      "stateMutability": "nonpayable",
      "type": "function"
    }
  ],
  "bytecode": "0x608060405234801561001057600080fd5b50610d4f806100206000396000f3fe608060405234801561001057600080fd5b506004361061007d5760003560e01c80638da5cb5b1161005b5780638da5cb5b146100da57806395d89b41146100f8578063de7ea79d14610116578063f2fde38b146101325761007d565b806306fdde0314610082578063236e06f6146100a0578063313ce567146100bc575b600080fd5b61008a61014e565b6040516100979190610a45565b60405180910390f35b6100ba60048036038101906100b59190610747565b6101dc565b005b6100c4610231565b6040516100d19190610b10565b60405180910390f35b6100e2610244565b6040516100ef9190610a01565b60405180910390f35b61010061026d565b60405161010d9190610a45565b60405180910390f35b610130600480360381019061012b9190610796565b6102fb565b005b61014c6004803603810190610147919061071e565b61042e565b005b6001805461015b90610c33565b80601f016020809104026020016040519081016040528092919081815260200182805461018790610c33565b80156101d45780601f106101a9576101008083540402835291602001916101d4565b820191906000526020600020905b8154815290600101906020018083116101b757829003601f168201915b505050505081565b8273ffffffffffffffffffffffffffffffffffffffff167f26981b9aefbb0f732b0264bd34c255e831001eb50b06bc85b32cc39e143897218383604051610224929190610ae7565b60405180910390a2505050565b600360009054906101000a900460ff1681565b60008060009054906101000a900473ffffffffffffffffffffffffffffffffffffffff16905090565b6002805461027a90610c33565b80601f01602080910402602001604051908101604052809291908181526020018280546102a690610c33565b80156102f35780601f106102c8576101008083540402835291602001916102f3565b820191906000526020600020905b8154815290600101906020018083116102d657829003601f168201915b505050505081565b600360019054906101000a900460ff161561034b576040517f08c379a000000000000000000000000000000000000000000000000000000000815260040161034290610a87565b60405180910390fd5b600073ffffffffffffffffffffffffffffffffffffffff168173ffffffffffffffffffffffffffffffffffffffff1614156103bb576040517f08c379a00000000000000000000000000000000000000000000000000000000081526004016103b290610ac7565b60405180910390fd5b83600190805190602001906103d19291906105d4565b5082600290805190602001906103e89291906105d4565b5081600360006101000a81548160ff021916908360ff16021790555061040d81610591565b6001600360016101000a81548160ff02191690831515021790555050505050565b60008054906101000a900473ffffffffffffffffffffffffffffffffffffffff1673ffffffffffffffffffffffffffffffffffffffff163373ffffffffffffffffffffffffffffffffffffffff16146104bc576040517f08c379a00000000000000000000000000000000000000000000000000000000081526004016104b390610aa7565b60405180910390fd5b600073ffffffffffffffffffffffffffffffffffffffff168173ffffffffffffffffffffffffffffffffffffffff16141561052c576040517f08c379a000000000000000000000000000000000000000000000000000000000815260040161052390610a67565b60405180910390fd5b7f8be0079c531659141344cd1fd0a4f28419497f9722a3daafe3b4186f6b6457e060008054906101000a900473ffffffffffffffffffffffffffffffffffffffff168260405161057d929190610a1c565b60405180910390a161058e81610591565b50565b806000806101000a81548173ffffffffffffffffffffffffffffffffffffffff021916908373ffffffffffffffffffffffffffffffffffffffff16021790555050565b8280546105e090610c33565b90600052602060002090601f0160209004810192826106025760008555610649565b82601f1061061b57805160ff1916838001178555610649565b82800160010185558215610649579182015b8281111561064857825182559160200191906001019061062d565b5b509050610656919061065a565b5090565b5b8082111561067357600081600090555060010161065b565b5090565b600061068a61068584610b5c565b610b2b565b9050828152602081018484840111156106a257600080fd5b6106ad848285610bf1565b509392505050565b6000813590506106c481610cd4565b92915050565b600082601f8301126106db57600080fd5b81356106eb848260208601610677565b91505092915050565b60008135905061070381610ceb565b92915050565b60008135905061071881610d02565b92915050565b60006020828403121561073057600080fd5b600061073e848285016106b5565b91505092915050565b60008060006060848603121561075c57600080fd5b600061076a868287016106b5565b935050602061077b868287016106f4565b925050604061078c868287016106f4565b9150509250925092565b600080600080608085870312156107ac57600080fd5b600085013567ffffffffffffffff8111156107c657600080fd5b6107d2878288016106ca565b945050602085013567ffffffffffffffff8111156107ef57600080fd5b6107fb878288016106ca565b935050604061080c87828801610709565b925050606061081d878288016106b5565b91505092959194509250565b61083281610ba8565b82525050565b600061084382610b8c565b61084d8185610b97565b935061085d818560208601610c00565b61086681610cc3565b840191505092915050565b600061087e602683610b97565b91507f4f776e61626c653a206e6577206f776e657220697320746865207a65726f206160008301527f64647265737300000000000000000000000000000000000000000000000000006020830152604082019050919050565b60006108e4603383610b97565b91507f466961744261636b656445786368616e67653a20636f6e74726163742069732060008301527f616c726561647920696e697469616c697a6564000000000000000000000000006020830152604082019050919050565b600061094a602083610b97565b91507f4f776e61626c653a2063616c6c6572206973206e6f7420746865206f776e65726000830152602082019050919050565b600061098a602983610b97565b91507f466961744261636b65643a206e6577206f776e657220697320746865207a657260008301527f6f206164647265737300000000000000000000000000000000000000000000006020830152604082019050919050565b6109ec81610bda565b82525050565b6109fb81610be4565b82525050565b6000602082019050610a166000830184610829565b92915050565b6000604082019050610a316000830185610829565b610a3e6020830184610829565b9392505050565b60006020820190508181036000830152610a5f8184610838565b905092915050565b60006020820190508181036000830152610a8081610871565b9050919050565b60006020820190508181036000830152610aa0816108d7565b9050919050565b60006020820190508181036000830152610ac08161093d565b9050919050565b60006020820190508181036000830152610ae08161097d565b9050919050565b6000604082019050610afc60008301856109e3565b610b0960208301846109e3565b9392505050565b6000602082019050610b2560008301846109f2565b92915050565b6000604051905081810181811067ffffffffffffffff82111715610b5257610b51610c94565b5b8060405250919050565b600067ffffffffffffffff821115610b7757610b76610c94565b5b601f19601f8301169050602081019050919050565b600081519050919050565b600082825260208201905092915050565b6000610bb382610bba565b9050919050565b600073ffffffffffffffffffffffffffffffffffffffff82169050919050565b6000819050919050565b600060ff82169050919050565b82818337600083830152505050565b60005b83811015610c1e578082015181840152602081019050610c03565b83811115610c2d576000848401525b50505050565b60006002820490506001821680610c4b57607f821691505b60208210811415610c5f57610c5e610c65565b5b50919050565b7f4e487b7100000000000000000000000000000000000000000000000000000000600052602260045260246000fd5b7f4e487b7100000000000000000000000000000000000000000000000000000000600052604160045260246000fd5b6000601f19601f8301169050919050565b610cdd81610ba8565b8114610ce857600080fd5b50565b610cf481610bda565b8114610cff57600080fd5b50565b610d0b81610be4565b8114610d1657600080fd5b5056fea2646970667358221220aee9eb5454957dd970f1d8f221852bc1887caef8916fdbbb87d3b2e1f91ec4f964736f6c63430008000033",
  "immutableReferences": {},
  "source": "/**\n * Copyright (c) 2018-2020 CENTRE SECZ\n *\n * Permission is hereby granted, free of charge, to any person obtaining a copy\n * of this software and associated documentation files (the \"Software\"), to deal\n * in the Software without restriction, including without limitation the rights\n * to use, copy, modify, merge, publish, distribute, sublicense, and/or sell\n * copies of the Software, and to permit persons to whom the Software is\n * furnished to do so, subject to the following conditions:\n *\n * The above copyright notice and this permission notice shall be included in\n * copies or substantial portions of the Software.\n *\n * THE SOFTWARE IS PROVIDED \"AS IS\", WITHOUT WARRANTY OF ANY KIND, EXPRESS OR\n * IMPLIED, INCLUDING BUT NOT LIMITED TO THE WARRANTIES OF MERCHANTABILITY,\n * FITNESS FOR A PARTICULAR PURPOSE AND NONINFRINGEMENT. IN NO EVENT SHALL THE\n * AUTHORS OR COPYRIGHT HOLDERS BE LIABLE FOR ANY CLAIM, DAMAGES OR OTHER\n * LIABILITY, WHETHER IN AN ACTION OF CONTRACT, TORT OR OTHERWISE, ARISING FROM,\n * OUT OF OR IN CONNECTION WITH THE SOFTWARE OR THE USE OR OTHER DEALINGS IN THE\n * SOFTWARE.\n */\n \n pragma solidity ^0.8.0;\n\nimport \"@openzeppelin/contracts/utils/math/SafeMath.sol\";\nimport \"@openzeppelin/contracts/utils/Address.sol\";\nimport \"./Ownable.sol\";\n\ncontract FiatBackedExchangeV0 is OwnableV0 {\n    using SafeMath for uint256;\n\n    string public name;\n    string public symbol;\n    uint8 public decimals;\n    bool internal initialized;\n\n\n    event Exchange(address indexed toAddress, uint256 amount, uint256 rate);\n\n    function initialize(\n        string memory tokenName,\n        string memory tokenSymbol,\n        uint8 tokenDecimals,\n        address newOwner\n    ) public {\n        require(!initialized, \"FiatBackedExchange: contract is already initialized\");\n        require(\n            newOwner != address(0),\n            \"FiatBacked: new owner is the zero address\"\n        );\n\n        name = tokenName;\n        symbol = tokenSymbol;\n        decimals = tokenDecimals;\n        setOwner(newOwner);\n        initialized = true;\n    }\n\n    function exchange (\n        address toAddress,\n        uint256 amount,\n        uint256 rate\n    ) public {\n        emit Exchange(toAddress, amount, rate);\n    }\n}",
  "sourcePath": "/Users/luisoscargabriel/luisgj/fiat-backed-token/contracts/FiatBackedExchange.sol",
  "compiler": {
    "name": "solc",
    "version": "0.8.0+commit.c7dfd78e.Emscripten.clang"
  },
  "schemaVersion": "3.4.1",
  "updatedAt": "2021-06-21T06:47:03.425Z",
  "devdoc": {
    "kind": "dev",
    "methods": {
      "owner()": {
        "details": "Tells the address of the owner",
        "returns": {
          "_0": "the address of the owner"
        }
      },
      "transferOwnership(address)": {
        "details": "Allows the current owner to transfer control of the contract to a newOwner.",
        "params": {
          "newOwner": "The address to transfer ownership to."
        }
      }
    },
    "version": 1
  },
  "userdoc": {
    "kind": "user",
    "methods": {},
    "version": 1
  }
}